{
    "contractName": "ContractC",
    "abi": [
        {
            "inputs": [
                {
                    "internalType": "uint256",
                    "name": "limit_",
                    "type": "uint256"
                }
            ],
            "stateMutability": "nonpayable",
            "type": "constructor"
        },
        {
            "inputs": [],
            "name": "AmountTooMuch",
            "type": "error"
        },
        {
            "inputs": [],
            "name": "UnauthorizedErr",
            "type": "error"
        },
        {
            "inputs": [
                {
                    "internalType": "uint256",
                    "name": "amount_",
                    "type": "uint256"
                }
            ],
            "name": "checkAmountCall",
            "outputs": [],
            "stateMutability": "nonpayable",
            "type": "function"
        },
        {
            "inputs": [
                {
                    "internalType": "uint256",
                    "name": "amount_",
                    "type": "uint256"
                }
            ],
            "name": "depositCall",
            "outputs": [
                {
                    "internalType": "uint256",
                    "name": "",
                    "type": "uint256"
                }
            ],
            "stateMutability": "nonpayable",
            "type": "function"
        },
        {
            "inputs": [
                {
                    "internalType": "uint256",
                    "name": "amount_",
                    "type": "uint256"
                }
            ],
            "name": "depositDelegate",
            "outputs": [
                {
                    "internalType": "uint256",
                    "name": "",
                    "type": "uint256"
                }
            ],
            "stateMutability": "nonpayable",
            "type": "function"
        },
        {
            "inputs": [],
            "name": "getOwner",
            "outputs": [
                {
                    "internalType": "address",
                    "name": "",
                    "type": "address"
                }
            ],
            "stateMutability": "view",
            "type": "function"
        },
        {
            "inputs": [],
            "name": "limit",
            "outputs": [
                {
                    "internalType": "uint256",
                    "name": "",
                    "type": "uint256"
                }
            ],
            "stateMutability": "view",
            "type": "function"
        },
        {
            "inputs": [],
            "name": "limitCopy",
            "outputs": [
                {
                    "internalType": "uint256",
                    "name": "",
                    "type": "uint256"
                }
            ],
            "stateMutability": "view",
            "type": "function"
        },
        {
            "inputs": [],
            "name": "total",
            "outputs": [
                {
                    "internalType": "uint256",
                    "name": "",
                    "type": "uint256"
                }
            ],
            "stateMutability": "view",
            "type": "function"
        },
        {
            "inputs": [
                {
                    "internalType": "address",
                    "name": "contractAddress_",
                    "type": "address"
                }
            ],
            "name": "updateContractAddress",
            "outputs": [
                {
                    "internalType": "bool",
                    "name": "",
                    "type": "bool"
                }
            ],
            "stateMutability": "nonpayable",
            "type": "function"
        }
    ],
    "bytecode": "608034606557601f6105d638819003918201601f19168301916001600160401b0383118484101760695780849260209460405283398101031260655751600380546001600160a01b031916331790556001819055600255604051610558908161007e8239f35b5f80fd5b634e487b7160e01b5f52604160045260245ffdfe6080806040526004361015610012575f80fd5b5f3560e01c9081632ddbd13a146102cd575080638022f5b914610280578063893d20e814610258578063a4d66daf1461023b578063bb2a49eb14610215578063bdf3e088146101ab578063c21eb7a71461018e5763d23fcecf14610074575f80fd5b3461018a57602036600319011261018a576004355f8060018060a01b0360045416604051826020820191630dcd1e6760e41b8352866024820152602481526100bd6044826102e6565b51925af16100c961031c565b9015610172575f808360018060a01b03600454169082604051602081019263b6b55f2560e01b84526024820152602481526101056044826102e6565b51925af161011161031c565b50610121575b60206040515f8152f35b61016d5f8060018060a01b036004541660405182602082019163775a25e360e01b8352600481526101536024826102e6565b51925af161016861016261031c565b91610490565b6104f5565b610117565b61017b906104f5565b6370d39c4360e01b5f5260045ffd5b5f80fd5b3461018a575f36600319011261018a576020600254604051908152f35b3461018a57602036600319011261018a576004356001600160a01b0381169081900361018a576003546001600160a01b03163303610206576bffffffffffffffffffffffff60a01b6004541617600455602060405160018152f35b63b9cf1ab560e01b5f5260045ffd5b3461018a57602036600319011261018a57602061023360043561035b565b604051908152f35b3461018a575f36600319011261018a576020600154604051908152f35b3461018a575f36600319011261018a576003546040516001600160a01b039091168152602090f35b3461018a57602036600319011261018a576102cb5f8060018060a01b0360045416604051826020820191630dcd1e6760e41b83526004356024820152602481526101536044826102e6565b005b3461018a575f36600319011261018a576020905f548152f35b90601f8019910116810190811067ffffffffffffffff82111761030857604052565b634e487b7160e01b5f52604160045260245ffd5b3d15610356573d9067ffffffffffffffff8211610308576040519161034b601f8201601f1916602001846102e6565b82523d5f602084013e565b606090565b5f8060018060a01b0360045416604051826020820191630dcd1e6760e41b8352866024820152602481526103906044826102e6565b51925af161039c61031c565b9015610172575060045460405163b6b55f2560e01b602082019081526024808301949094529281525f9283926001600160a01b0316916103dd6044826102e6565b51915af46103e961031c565b9015610481575b506001546002540361040157600190565b5f8061045a6104686040516104176040826102e6565b60128152716c696d697420213d206c696d6974436f707960701b602082015260405192839163104c13eb60e21b60208401526020602484015260448301906104d1565b03601f1981018352826102e6565b6020815191016a636f6e736f6c652e6c6f675afa505f90565b61048a906104f5565b5f6103f0565b5f8091604051906332458eed60e01b602083015215156024820152602481526104ba6044826102e6565b6020815191016a636f6e736f6c652e6c6f675afa50565b805180835260209291819084018484015e5f828201840152601f01601f1916010190565b5f61045a6104ba82936040519283916305f3bfab60e11b60208401526020602484015260448301906104d156fea26469706673582212201fb2f3a9f39ead7f67b1959202cecaac00a71d483b9d0de340a113ed2e254d4564736f6c634300081a0033",
    "sourcePath": "/Users/yamingdeng/Projects/solidity/sample001/contracts/ContractC.sol",
    "compiler": {
        "name": "solc",
        "version": "0.8.26+commit.8a97fa7a"
    },
    "functionHashes": {
        "checkAmountCall(uint256)": "8022f5b9",
        "depositCall(uint256)": "d23fcecf",
        "depositDelegate(uint256)": "bb2a49eb",
        "getOwner()": "893d20e8",
        "limit()": "a4d66daf",
        "limitCopy()": "c21eb7a7",
        "total()": "2ddbd13a",
        "updateContractAddress(address)": "bdf3e088"
    },
    "gasEstimates": {
        "creation": {
            "codeDepositCost": "273600",
            "executionCost": "infinite",
            "totalCost": "infinite"
        },
        "external": {
            "checkAmountCall(uint256)": "infinite",
            "depositCall(uint256)": "infinite",
            "depositDelegate(uint256)": "infinite",
            "getOwner()": "2324",
            "limit()": "2322",
            "limitCopy()": "2388",
            "total()": "2247",
            "updateContractAddress(address)": "26676"
        }
    }
}